:020000040000FA
:100000000A128A11F92F00308A000408840A820734
:100010000034533431343A342034003453343234DD
:100020003A3420340034533433343A3420340034F6
:100C0000F00070088312031388000800F0007008D9
:100C1000831203139300080083160313141C112E70
:100C2000122E0C2E08000A128A110C260A128A11A2
:100C3000831203131308080000300A128A11552684
:100C40000A128A1101300A128A1155260A128A11D3
:100C50000800F20083120313091472080A128A11A1
:100C600000260A128A118312031389141A30F10024
:100C7000F10B382E00008312031389100800F300D3
:100C8000831603138712731D462E472E4B2E7208B0
:100C9000940087154F2E7008720494008711730812
:100CA00071048312031394000800F30083120313EA
:100CB000091073080A128A1100260A128A11831277
:100CC000031389140B30F2006230F100F10B662E31
:100CD000F20B662E0000831203138910080083169E
:100CE00003178801890183160313870107168601FC
:100CF0008801890183120313860188010714871470
:100D00000715F001F101F20120300A128A113F2685
:100D10000A128A110800F6007603031D902E912E08
:100D20009D2E74087F3EF5007508F70077080A12BB
:100D30008A1155260A128A11AE2E02307606031D3C
:100D4000A22EA32EAE2E7408BF3EF5007508F70044
:100D500077080A128A1155260A128A110800F5002E
:100D6000F301F401C62E7308750784000A128A1174
:100D700003200A128A110A128A1129260A128A11DC
:100D80000130F3070318F40A0030F40773087507FD
:100D900084000A128A1103200A128A11003A031DE4
:100DA000D22ED32EB32E0800831203130710033064
:100DB000F2009730F100F10BDB2EF20BDB2EE02E70
:100DC00001300A128A1106260A128A110A128A11A1
:100DD00013260A128A11F1007108FB000330F20099
:100DE0009730F100F10BF22EF20BF22EF72E831258
:100DF0000313071408008312031387100330F20053
:100E00009730F100F10B022FF20B022F072F013068
:100E10000A128A1106260A128A110A128A11132648
:100E20000A128A118312031386000330F2009730EE
:100E3000F100F10B192FF20B192F1E2F8312031340
:100E4000871408008312031307110330F200973050
:100E5000F100F10B292FF20B292F2E2F01300A124E
:100E60008A1106260A128A110A128A1113260A12F8
:100E70008A11F1007108F9000330F2009730F10097
:100E8000F10B402FF20B402F452F83120313071550
:100E900008000A128A116F260A128A110A128A1190
:100EA0009F270A128A110A128A111C260A128A1115
:100EB0000A128A1170270A128A110A128A11D4267C
:100EC0000A128A110A128A11FB260A128A110A12C0
:100ED0008A1122270A128A11582F0A128A11002811
:100EE000F401F40A01300A128A118B260A128A11BF
:100EF00001300A128A11AF260A128A110730F8004F
:100F00007808F40001300A128A118B260A128A111D
:100F100006300A128A11AF260A128A110E30F80022
:100F20007808F40001300A128A118B260A128A11FD
:100F30000B300A128A11AF260A128A1108003430C7
:100F4000F500F130F400F40BA32FF50BA32FA82F1D
:100F500000300A128A1100260A128A113430F50074
:100F6000F130F400F40BB22FF50BB22FB72F303065
:100F70000A128A1155260A128A110D30F500FB302B
:100F8000F400F40BC12FF50BC12FC62F30300A121D
:100F90008A1155260A128A111D30F5009130F4008D
:100FA000F40BD02FF50BD02F30300A128A115526B2
:100FB0000A128A1138300A128A1155260A128A1129
:100FC00008300A128A1155260A128A1101300A12B3
:100FD0008A1155260A128A1106300A128A115526DC
:100FE0000A128A110C300A128A1155260A128A1125
:100FF0000800F901FA01FB0183010A128A11492F45
:04400E00F423FF3F59
:00000001FF
