:020000040000FA
:100000000A128A11ED2F00308A000408840A820740
:100010000034533431343A342034003453343234DD
:100020003A3420340034533433343A3420340034F6
:10086800F00070088312031388000800F000700875
:10087800831203139300080083160313141C452CDA
:10088800462C402C08000A128A1140240A128A11A8
:10089800831203131308080000300A128A118924EE
:1008A8000A128A1101300A128A1189240A128A113D
:1008B8000800F20083120313091472080A128A113D
:1008C80034240A128A118312031389141A30F1008E
:1008D800F10B6C2C00008312031389100800F3003D
:1008E800831603138712731D7A2C7B2C7F2C7208B6
:1008F80094008715832C700872049400871173087C
:1009080071048312031394000800F3008312031385
:10091800091073080A128A1134240A128A118312E0
:10092800031389140B30F2006230F100F10B9A2C9A
:10093800F20B9A2C00008312031389100800831607
:100948000317880189018316031387010716860197
:10095800880189018312031386018801071487140B
:100968000715F001F101F20120300A128A117324EF
:100978000A128A110800F6007603031DC42CC52C40
:10098800D12C74087F3EF5007508F70077080A1225
:100998008A1189240A128A11E22C02307606031D74
:1009A800D62CD72CE22C7408BF3EF5007508F7004A
:1009B80077080A128A1189240A128A110800F50098
:1009C800F301F401FA2C7308750784000A128A11DE
:1009D80003200A128A110A128A115D240A128A1146
:1009E8000130F3070318F40A0030F4077308750799
:1009F80084000A128A1103200A128A11003A031D80
:100A0800062D072DE72C0800F401F501701C0D2DAB
:100A18000E2D142D7208F4070318F50A7308F5074C
:100A280001300310F20DF30DFF3E031D152D0130AB
:100A38000310F10CF00CFF3E031D1C2D700871040F
:100A4800031D272D282D0A2D7508F1007408F000C4
:100A580008008312031307110330F2009730F100E6
:100A6800F10B342DF20B342D392D01300A128A1175
:100A78003A240A128A110A128A1147240A128A1180
:100A88008312031386000330F2009730F100F10B54
:100A98004B2DF20B4B2D502D831203130715080015
:100AA8008312031307100330F2009730F100F10BA3
:100AB8005B2DF20B5B2D602D01300A128A113A244E
:100AC8000A128A110A128A1147240A128A11F1009D
:100AD800710883120313A8000330F2009730F10065
:100AE800F10B742DF20B742D792D83120313071457
:100AF80008008312031387100330F2009730F100C7
:100B0800F10B842DF20B842D892D01300A128A11E4
:100B18003A240A128A110A128A1147240A128A11DF
:100B2800F100710883120313A7000330F200973015
:100B3800F100F10B9D2DF20B9D2DA22D83120313B5
:100B480087140800F401F40A01300A128A11BF243C
:100B58000A128A1101300A128A11E3240A128A1130
:100B68000730F8007808F40001300A128A11BF240F
:100B78000A128A1106300A128A11E3240A128A110B
:100B88000E30F8007808F40001300A128A11BF24E8
:100B98000A128A110B300A128A11E3240A128A11E6
:100BA80008000A128A11A3240A128A110A128A1149
:100BB8004A260A128A110A128A1150240A128A1124
:100BC8000A128A11A6250A128A110A128A115425B4
:100BD8000A128A110A128A117D250A128A110A122A
:100BE8008A112D250A128A110A128A11A4260A12BC
:100BF8008A110A128A1148270A128A11E42D0A1248
:100C08008A110028F501F6017008710403190D2EE8
:100C18000E2E452EF701F70A1C2E01300310F00D99
:100C2800F10DFF3E031D122E0130F4007408F70782
:100C3800F11F1F2E202E112E01300310F50DF60D79
:100C4800FF3E031D212E71087302031D2D2E70080F
:100C58007202031C302E312E382E7008F2027108F1
:100C6800031CF303F302751401300310F10CF00CAC
:100C7800FF3E031D392E0130F702031D442E452E79
:100C8800202E7608F1007508F00008003430F500D1
:100C9800F130F400F40B4E2EF50B4E2E532E00308F
:100CA8000A128A1134240A128A113430F500F130FC
:100CB800F400F40B5D2EF50B5D2E622E30300A1217
:100CC8008A1189240A128A110D30F500FB30F400CC
:100CD800F40B6C2EF50B6C2E712E30300A128A1123
:100CE80089240A128A111D30F5009130F400F40BA2
:100CF8007B2EF50B7B2E30300A128A1189240A12BA
:100D08008A1138300A128A1189240A128A11083085
:100D18000A128A1189240A128A1101300A128A11C8
:100D280089240A128A1106300A128A1189240A12A1
:100D38008A110C300A128A1189240A128A110800B1
:100D4800831203132808F800F9010310780DA20094
:100D5800790DA3006430F0000030F1002308F3009F
:100D68002208F2000A128A1106260A128A1170084D
:100D7800F8007808FD007D08F800F9017808F0000F
:100D88007908F1009C30F200FF30F3000A128A1152
:100D980008250A128A118312031322087007A20079
:100DA80023080318230A7107A3000A30F000003053
:100DB800F1002308F3002208F2000A128A1106261D
:100DC8000A128A117008F8007808FC007C08F800FC
:100DD800F9017808F0007908F100F630F200FF30E8
:100DE800F3000A128A1108250A128A1183120313C2
:100DF80022087007A20023080318230A7107A3001A
:100E08002208F8007808A5007D08303EF800780828
:100E1800FD007C08303EF8007808FC002508303ECC
:100E2800F8007808A500F401F40A02300A128A11C1
:100E3800BF240A128A117D080A128A115D240A1237
:100E48008A110230F8007808F40002300A128A1178
:100E5800BF240A128A117C080A128A115D240A1218
:100E68008A110330F8007808F40002300A128A1157
:100E7800BF240A128A118312031325080A128A1141
:100E88005D240A128A110800831203132708F80048
:100E9800F9017808A0007908A1006430F00000305A
:100EA800F1002108F3002008F2000A128A11062630
:100EB8000A128A117008F8007808FB007B08F8000D
:100EC800F9017808F0007908F1009C30F200FF3051
:100ED800F3000A128A1108250A128A1183120313D1
:100EE80020087007A00021080318210A7107A10033
:100EF8000A30F0000030F1002108F3002008F20069
:100F08000A128A1106260A128A117008F80078084F
:100F1800FA007A08F800F9017808F0007908F10079
:100F2800F630F200FF30F3000A128A1108250A127F
:100F38008A118312031320087007A00021080318E0
:100F4800210A7107A1002008F8007808A4007B088E
:100F5800303EF8007808FB007A08303EF800780840
:100F6800FA002408303EF8007808A4000730F8009A
:100F78007808F40002300A128A11BF240A128A1172
:100F88007B080A128A115D240A128A110830F800B7
:100F98007808F40002300A128A11BF240A128A1152
:100FA8007A080A128A115D240A128A110930F80097
:100FB8007808F40002300A128A11BF240A128A1132
:100FC8008312031324080A128A115D240A128A1153
:100FD8000800FA01FB01FC01FD0183120313A001C3
:100FE800A101A201A301A401A501A601A701A801CD
:080FF80083010A128A11D52DB4
:04400E00F423FF3F59
:00000001FF
