:020000040000FA
:060000000A128A11F92F1B
:100E4C00F000700883120313930008008316031339
:100E5C00141C312F322F2C2F08000A128A112C2728
:100E6C000A128A118312031313080800F300831665
:100E7C0003138712731D432F442F482F72089400BD
:100E8C0087154C2F70087204940087117308710435
:100E9C0083120313940008000A128A116A270A129B
:100EAC008A110A128A1184270A128A110A128A11CB
:100EBC00AB270A128A110A128A11D2270A128A1136
:100ECC00572F0A128A1100288316031788018901EB
:100EDC0083160313071686018801831203138601F8
:100EEC008801071487140715F001F101F201203075
:100EFC000A128A113C270A128A1108008312031362
:100F0C0007100330F2009730F100F10B8B2FF20B2E
:100F1C008B2F902F01300A128A1126270A128A1160
:100F2C000A128A1133270A128A11F1007108F6008D
:100F3C000330F2009730F100F10BA22FF20BA22F2D
:100F4C00A72F8312031307140800831203138710AF
:100F5C000330F2009730F100F10BB22FF20BB22FED
:100F6C00B72F01300A128A1126270A128A110A1287
:100F7C008A1133270A128A11F1007108F500033027
:100F8C00F2009730F100F10BC92FF20BC92FCE2FC5
:100F9C008312031387140800831203130711033001
:100FAC00F2009730F100F10BD92FF20BD92FDE2F75
:100FBC0001300A128A1126270A128A110A128A1182
:100FCC0033270A128A11F1007108F4000330F20081
:100FDC009730F100F10BF02FF20BF02FF52F83125D
:100FEC00031307150800F401F501F60183010A1239
:040FFC008A11522FD5
:04400E00F423FF3F59
:00000001FF
