:020000040000FA
:060000000A128A11F92F1B
:100E4A00F00070088312031393000800831603133B
:100E5A00141C302F312F2B2F08000A128A112B272E
:100E6A000A128A118312031313080800F300831667
:100E7A0003138712731D422F432F472F72089400C2
:100E8A0087154B2F70087204940087117308710438
:100E9A0083120313940008000A128A1169270A129E
:100EAA008A110A128A1184270A128A110A128A11CD
:100EBA00AB270A128A110A128A11D2270A128A1138
:100ECA00562F0A128A1100288316031788018901EE
:100EDA0083160313870107168601880183120313F9
:100EEA0086018801071487140715F001F101F20140
:100EFA0020300A128A113B270A128A11080083122B
:100F0A00031307100330F2009730F100F10B8B2F17
:100F1A00F20B8B2F902F01300A128A1125270A1201
:100F2A008A110A128A1132270A128A11F1007108EB
:100F3A00F6000330F2009730F100F10BA22FF20B0A
:100F4A00A22FA72F83120313071408008312031377
:100F5A0087100330F2009730F100F10BB22FF20B39
:100F6A00B22FB72F01300A128A1125270A128A11C5
:100F7A000A128A1132270A128A118312031386006F
:100F8A000330F2009730F100F10BC92FF20BC92F91
:100F9A00CE2F831203138714080083120313071139
:100FAA000330F2009730F100F10BD92FF20BD92F51
:100FBA00DE2F01300A128A1125270A128A110A1213
:100FCA008A1132270A128A11F1007108F4000330DB
:100FDA00F2009730F100F10BF02FF20BF02FF52F02
:100FEA008312031307150800F401F501F6018301C2
:060FFA000A128A11512FBA
:04400E00F423FF3F59
:00000001FF
