:020000040000FA
:060000000A128A110C280F
:10000800FE00030EF1000A08F2000A128A11B02954
:100018000A128A110F28F901FA0183010A128A11BA
:100028001C29F8003028831203139F131F139728E5
:10003800831203139F131F179728831203139F1705
:100048001F139728831203139F171F1797288312CC
:1000580003139F131F1797287808F600F7017708EE
:10006800003A031938282B287608003A031917286C
:10007800013A03191C28033A03192128013A0319E4
:1000880026282B28C3309F05DD281F08C3390438CC
:100098009F00DD281F08C33908389F00DD281F0886
:1000A800C3390C389F00DD281F08C33910389F005A
:1000B800DD281F08C33914389F00DD281F08C339FD
:1000C80018389F00DD281F08C3391C389F00DD2819
:1000D8001F08C33920389F00DD281F08C33924387A
:1000E8009F00DD281F08C33928389F00DD281F0816
:1000F800C3392C389F00DD281F08C33930389F00CA
:10010800DD281F08C33934389F00DD281F08C3398C
:1001180038389F00DD283C309F04DD281F08C3398C
:1001280008389F00DD287308F600F7017708003AC1
:1001380003199F2892287608003A03194628013A9D
:1001480003194928033A03194E28013A0319532879
:10015800073A03195828013A03195D28033A031985
:100168006228013A031967280F3A03196C28013AE3
:1001780003197128033A03197628013A03197B28D1
:10018800073A03198028013A03198528033A031905
:100198008A28013A03198F289228831603139F137C
:1001A800FC28831603139F17FC28831603139F1339
:1001B800FC287408F600F7017708003A0319E528C7
:1001C800D9287608003A0319D128013A0319D52805
:1001D800D9289F121F1212299F121F1612299F1623
:1001E8001F1212299F161F1612299F121F12122959
:1001F8007508F600F7017708003A03190429F92869
:100208007608013A0319ED28033A0319F028013A50
:100218000319F328073A0319F628F9288312031358
:100228000C13831603130C17831203131F140800EF
:100238000A128A1175210A128A11F301F401043095
:1002480083120313A0002008F50001300A128A1156
:1002580015200A128A11FA01FA0A7A03031D3529B0
:1002680036294229C73083120313A0003B29A00B6B
:100278003A293E29FA01831203139F140A128A119C
:100288004B210A128A1131290A128A110C2863306B
:10029800790203185029512957298312031308108A
:1002A8008810081574297130790203185C295D29B2
:1002B800692964307902031C622963296929831238
:1002C8000313081088140811742972307902031C6A
:1002D8006E296F29742983120313081488100811D2
:1002E8000800831603178801890108148B178316E1
:1002F80003138501051485168701071688018601F1
:1003080083120313870188010B170C138316031339
:100318000C17831203131F14F301F401F5012430A1
:100328000A128A119A210A128A110800F600831605
:1003380003138712761DA129A229A62975089400FE
:100348008715AA2973087504940087117608740420
:100358008312031394000800831203130C1FB5299A
:10036800B629BD291E08F0007008F900FA01FA0A3A
:100378000C1372088A00710E8300FE0E7E0E0900AF
:04400E00F423FF3F59
:00000001FF
