:020000040000FA
:060000000A128A110C280F
:10000800FE00030EF2000A08F3000A128A11792989
:100018000A128A110F28F801F90183010A128A11BC
:100028002029F70026289F131F138F289F131F17B7
:100038008F289F171F138F289F171F178F289F130D
:100048001F178F28770883120313A000A101210826
:10005800003A0319302823282008003A03191728E2
:10006800013A03191A28033A03191D28013A0319FA
:1000780020282328C3309F05D5281F08C3390438F2
:100088009F00D5281F08C33908389F00D5281F08A6
:10009800C3390C389F00D5281F08C33910389F0072
:1000A800D5281F08C33914389F00D5281F08C3391D
:1000B80018389F00D5281F08C3391C389F00D52839
:1000C8001F08C33920389F00D5281F08C339243892
:1000D8009F00D5281F08C33928389F00D5281F0836
:1000E800C3392C389F00D5281F08C33930389F00E2
:1000F800D5281F08C33934389F00D5281F08C339AD
:1001080038389F00D5283C309F04D5281F08C339AC
:1001180008389F00D5287408A000A1012108003ADA
:10012800031997288A282008003A03193E28013A1B
:1001380003194128033A03194628013A03194B28A1
:10014800073A03195028013A03195528033A0319A5
:100158005A28013A03195F280F3A03196428013A0B
:1001680003196928033A03196E28013A03197328F9
:10017800073A03197828013A03197D28033A031925
:100188008228013A031987288A28831603139F13A4
:10019800FE28831603139F17FE28831603139F1345
:1001A800FE287508A000A1012108003A0319DD28DE
:1001B800D1282008003A0319C928013A0319CD2883
:1001C800D128831603139F121F12162983160313AF
:1001D8009F121F161629831603139F161F1216291E
:1001E800831603139F161F161629831603139F12CF
:1001F8001F121629760883120313A000A1012108F3
:10020800003A03190829F9282008013A0319E528B2
:10021800033A0319EA28013A0319EF28073A0319A0
:10022800F428F928831203130C13831603130C17ED
:10023800831203131F1408000A128A119F210A123D
:100248008A11F401F501043083120313A200220875
:10025800F60001300A128A1115200A128A11F901D2
:10026800F90A7903031D39293A294629C730831227
:100278000313A2003F29A20B3E294229F901831248
:1002880003139F140A128A114F210A128A11352961
:100298000A128A110C286330780203185429552948
:1002A8005B29831203130810881008157829713008
:1002B80078020318602961296D2964307802031CCB
:1002C800662967296D2983120313081088140811F9
:1002D800782972307802031C7229732978298312CD
:1002E80003130814881008110800831203130C1F45
:1002F8007E297F2986291E08F1007108F800F90176
:10030800F90A0C138C1D89298A2998290A128A113D
:10031800DA210A128A1178080A128A11EA210A12C5
:100328008A11831203138C1173088A00720E8300DA
:10033800FE0E7E0E09008316031788018901081432
:100348008B17831603138501051485168701071675
:100358008801860183120313870188010B170C1388
:10036800831603130C17831203131F14F401F501EA
:10037800F60124300A128A11C4210A128A110800CF
:10038800F700831603138712771DCB29CC29D029B0
:10039800760894008715D429740876049400871188
:1003A8007708750483120313940008000A128A114F
:1003B800E3210A128A118312031313080800831613
:1003C8000313141CE829E929E3290800F000700840
:0803D8008312031393000800D7
:04400E00F423FF3F59
:00000001FF
