:020000040000FA
:060000000A128A110C280F
:10000800FE00030EF1000A08F2000A128A113A28CB
:100018000A128A110F2883010A128A115728831697
:1000280003178801890108158B17831203138101AF
:10003800831603138501051587018801860183123C
:1000480003138701880183160313861406140B17FC
:100058008B15161496140B10831203130C138316A6
:1000680003130C17831203131F1408000B1C3D28DD
:100078003E28502883120313061C43284428472887
:10008800013088024F28861C4A284B284F28013007
:10009800F000700888070B1072088A00710E830040
:1000A800FE0E7E0E09000A128A1113200A128A1106
:0800B8005C280A128A110C28D1
:04400E00F423FF3F59
:00000001FF
