:020000040000FA
:060000000A128A110C280F
:10000800FE00030EF1000A08F2000A128A114228C3
:100018000A128A110F2883010A128A117528831679
:1000280003178801890108158B17831603138501A7
:1000380005158516870107168801860183120313A3
:100048008701880183160313861406140B178B1572
:10005800161496140B10831203130C138316031330
:100068000C17831203131F14F301F401F501243054
:100078000A128A115F200A128A1108000B1C4528EF
:100088004628582883120313061C4B284C284F284F
:10009800013088025728861C5228532857280130D7
:1000A800F000700888070B1072088A00710E830030
:1000B800FE0E7E0E0900F600831603138712761DC6
:1000C800662867286B287508940087156F287308B9
:1000D800750494008711760874048312031394003E
:1000E80008000A128A1113200A128A117A280A12A1
:0400F8008A110C2835
:04400E00F423FF3F59
:00000001FF
