:020000040000FA
:060000000A128A110C280F
:10000800FE00030EF1000A08F2000A128A113728CE
:100018000A128A110F2883010A128A116A28831684
:100028000317880189018B17831603138501851629
:100038008701071688018601831203138701880147
:1000480083160313861406140B178B1516149614AF
:100058000B10F301F401F50124300A128A1154201F
:100068000A128A1108000B1C3A283B284D288312D3
:100078000313061C402841284428013088024C28D4
:10008800861C472848284C280130F000700888074B
:100098000B1072088A00710E8300FE0E7E0E090096
:1000A800F600831603138712761D5B285C286028E8
:1000B80075089400871564287308750494008711DF
:1000C8007608740483120313940008000A128A1134
:1000D80013200A128A118312031308080A128A11BC
:1000E8007B200A128A116F280A128A110C28F30041
:0A00F800730883120313930008003D
:04400E00F423FF3F59
:00000001FF
