:020000040000FA
:060000000A128A110C280F
:10000800FE00030EF2000A08F3000A128A111328F0
:100018000A128A110F2883010A128A1189280B1CD7
:10002800162817283D2883120313061C1C281D2890
:100038002028013088022828861C232824282828DC
:100048000130F100710888070B108C1D2C282D2811
:100058003D280A128A1192200A128A118312031368
:1000680008080A128A11A2200A128A11831203139D
:100078008C1173088A00720E8300FE0E7E0E090032
:10008800831603178801890108158B178316031334
:1000980085010515851687010716880186018312D3
:1000A80003138701880183160313861406140B179C
:1000B8008B15161496140B10831203130C13831646
:1000C80003130C17831203131F14F401F501F6012F
:1000D80024300A128A1173200A128A110800F700C4
:1000E800831603138712771D7A287B287F287608C2
:1000F800940087158328740876049400871177087C
:10010800750483120313940008000A128A1144200C
:100118000A128A118E280A128A110C280A128A11C8
:100128009B200A128A1183120313130808008316EE
:100138000313141CA028A1289B280800F0007008AD
:08014800831203139300080069
:04400E00F423FF3F59
:00000001FF
