:020000040000FA
:060000000A128A110C280F
:10000800FE00030EF2000A08F3000A128A117C2986
:100018000A128A110F28F801F90183010A128A11BC
:100028005229F70026289F131F138F289F131F1785
:100038008F289F171F138F289F171F178F289F130D
:100048001F178F28770883120313A000A101210826
:10005800003A0319302823282008003A03191728E2
:10006800013A03191A28033A03191D28013A0319FA
:1000780020282328C3309F05D5281F08C3390438F2
:100088009F00D5281F08C33908389F00D5281F08A6
:10009800C3390C389F00D5281F08C33910389F0072
:1000A800D5281F08C33914389F00D5281F08C3391D
:1000B80018389F00D5281F08C3391C389F00D52839
:1000C8001F08C33920389F00D5281F08C339243892
:1000D8009F00D5281F08C33928389F00D5281F0836
:1000E800C3392C389F00D5281F08C33930389F00E2
:1000F800D5281F08C33934389F00D5281F08C339AD
:1001080038389F00D5283C309F04D5281F08C339AC
:1001180008389F00D5287408A000A1012108003ADA
:10012800031997288A282008003A03193E28013A1B
:1001380003194128033A03194628013A03194B28A1
:10014800073A03195028013A03195528033A0319A5
:100158005A28013A03195F280F3A03196428013A0B
:1001680003196928033A03196E28013A03197328F9
:10017800073A03197828013A03197D28033A031925
:100188008228013A031987288A28831603139F13A4
:10019800FE28831603139F17FE28831603139F1345
:1001A800FE287508A000A1012108003A0319DD28DE
:1001B800D1282008003A0319C928013A0319CD2883
:1001C800D128831603139F121F12162983160313AF
:1001D8009F121F161629831603139F161F1216291E
:1001E800831603139F161F161629831603139F12CF
:1001F8001F121629760883120313A000A1012108F3
:10020800003A03190829F9282008013A0319E528B2
:10021800033A0319EA28013A0319EF28073A0319A0
:10022800F428F928831203130C13831603130C17ED
:10023800831203131F14080083160317880189010A
:1002480008148B1783120313810183160313850186
:100258000514851687010716880186018312031382
:100268008701880183160313861406140B178B1550
:10027800161496140B10831203130C13831603130E
:100288000C17831203131F14F401F501F60124302F
:100298000A128A11A2210A128A1108000A128A1166
:1002A80020210A128A11F401F501F601F60A01303B
:1002B8000A128A1115200A128A11F901F90A780816
:1002C8008312031387007903031D6B296C296329A3
:1002D800C73083120313A2007129A20B7029742955
:1002E800F901831203139F1463290A128A110C2837
:1002F800831203130C1F8129822989291E08F10002
:100308007108F800F901F90A0C138C1D8C298D2944
:100318009B290A128A11B8210A128A1178080A122E
:100328008A11C8210A128A11831203138C117308C7
:100338008A00720E8300FE0E7E0E0900F7008316F7
:1003480003138712771DA929AA29AE2976089400D4
:100358008715B22974087604940087117708750404
:1003680083120313940008000A128A11C1210A1289
:100378008A11831203131308080083160313141C2D
:10038800C629C729C1290800F00070088312031381
:0403980093000800C6
:04400E00F423FF3F59
:00000001FF
