:020000040000FA
:060000000A128A110C280F
:10000800FE00030EF1000A08F2000A128A118E2976
:100018000A128A110F28F901FA0183010A128A11BA
:100028004E29F8003028831203139F131F139728B3
:10003800831203139F131F179728831203139F1705
:100048001F139728831203139F171F1797288312CC
:1000580003139F131F1797287808F600F7017708EE
:10006800003A031938282B287608003A031917286C
:10007800013A03191C28033A03192128013A0319E4
:1000880026282B28C3309F05DD281F08C3390438CC
:100098009F00DD281F08C33908389F00DD281F0886
:1000A800C3390C389F00DD281F08C33910389F005A
:1000B800DD281F08C33914389F00DD281F08C339FD
:1000C80018389F00DD281F08C3391C389F00DD2819
:1000D8001F08C33920389F00DD281F08C33924387A
:1000E8009F00DD281F08C33928389F00DD281F0816
:1000F800C3392C389F00DD281F08C33930389F00CA
:10010800DD281F08C33934389F00DD281F08C3398C
:1001180038389F00DD283C309F04DD281F08C3398C
:1001280008389F00DD287308F600F7017708003AC1
:1001380003199F2892287608003A03194628013A9D
:1001480003194928033A03194E28013A0319532879
:10015800073A03195828013A03195D28033A031985
:100168006228013A031967280F3A03196C28013AE3
:1001780003197128033A03197628013A03197B28D1
:10018800073A03198028013A03198528033A031905
:100198008A28013A03198F289228831603139F137C
:1001A800FC28831603139F17FC28831603139F1339
:1001B800FC287408F600F7017708003A0319E528C7
:1001C800D9287608003A0319D128013A0319D52805
:1001D800D9289F121F1212299F121F1612299F1623
:1001E8001F1212299F161F1612299F121F12122959
:1001F8007508F600F7017708003A03190429F92869
:100208007608013A0319ED28033A0319F028013A50
:100218000319F328073A0319F628F9288312031358
:100228000C13831603130C17831203131F140800EF
:10023800831603178801890108148B178312031387
:100248008101831603138501051485168701071696
:10025800880186018312031387018801831603131B
:10026800861406140B178B15161496140B1083128C
:1002780003130C13831603130C17831203131F1491
:10028800F301F401F50124300A128A1178210A12C7
:100298008A1108000A128A111C210A128A11F30114
:1002A800F401F501F50A01300A128A1115200A1223
:1002B8008A11FA01FA0A79088312031387007A036C
:1002C800031D672968295F29C73083120313A0001B
:1002D8006D29A00B6C297029FA01831203139F144E
:1002E8005F290A128A110C28F60083160313871255
:1002F800761D7F2980298429750894008715882907
:100308007308750494008711760874048312031324
:1003180094000800831203130C1F932994299B2926
:100328001E08F0007008F900FA01FA0A0C137208A6
:0C0338008A00710E8300FE0E7E0E09008C
:04400E00F423FF3F59
:00000001FF
